:02000000FC2BD7
:10000600103083120313FD00FD0B072800000800C3
:0400160000000800DE
:10001A00083083120313FC002330FD00FD0B132864
:06002A00FC0B1328080086
:0E003000F201F101F001F801F30100300800C7
:10003E0083120313EE1B25288611262886156E1BA8
:10004E002A2806112B280615EE1A2F28861030287E
:10005E0086146E1A342806103528061457183928B7
:10006E0006163A28061286160B208612EE1941281D
:10007E008611422886156E19462806114728061540
:10008E00EE184B2886104C2886146E185028061031
:10009E005128061457185528061656280612861685
:1000AE000B208612571C5D280D205E2803200800A9
:0800BE00FA1FF21300300800E4
:1000C6007B15FB1F6D280130F300F201F101F001F1
:0800D600FA0DF20CFF300800E6
:0E00DE008312031356088A005508820008009A
:1000EC008316031398187C280000762883126D0859
:0400FC00990008005F
:100100007B14FB1F8B28F201FA1FFF30F200F10075
:0A011000F000FA0DF20CFF300800B9
:10011A00710DF80DF90D7408F8027508031C750FB6
:10012A00F902F00DF10D0F30FC00710DF80DF90D0B
:10013A007408701CA628F8027508031C750FF902CA
:10014A00AB28F80775080318750FF907F00DF10DBC
:10015A00FC0B9A287018B7287408F8077508031852
:08016A00750FF9070000080001
:100172008312031357106D08EE001F205714080056
:10018200FB14FB1FCB28FF30F300F200F100F0005C
:08019200FA0DF20CFF30080029
:10019A00A0017208031DE2287108F2007008F1003C
:1001AA00F001A0157208031DE2287108F200F1019E
:1001BA00A011201672080319F0282008F302031D63
:1001CA00031CF4280310F21BF828F00DF10DF20DB0
:1001DA00F30BE828F4280130FC001820FB28023031
:0E01EA00FC006320FB280430FC005F200800AE
:0601F800FB15FF300800BA
:0E01FE00073083120313FD00FD0B03290800D8
:10020C00831203137008F8007108F000F101F20179
:10021C00F301FB01FC019630F300FA01F01F1C29DD
:10022C00F809F009F80A0319F00AFA177008F10036
:0C023C007808F000F801F201CD20080065
:1002480083120313EB01690884000008EA006A08B6
:10025800003A031939296A08ED007620EB0A6B0881
:0C026800690784000008EA002B29080048
:100274004C29803083120313E9005F29C030E90060
:100284005F299430E9005F29D430E9005F29803088
:10029400E9005F29831203136908013A03193B2912
:1002A4006908023A031940296908033A03194329E2
:1002B4006908043A0319462949296A03F0006908C0
:1002C400F0077008E9007008EE001F205710EC01D9
:1002D4006C086B0784000008031978296C086B0705
:1002E40084000008ED00B920EC0A6A2957140800BC
:1002F400831203137408003A031D89297508003A10
:10030400031D8929FF30F0007F30F10008008312BB
:100314000313FD01F901F801710870040319003495
:1003240071087506FA00FA1BFD09FB01F51F9F29E8
:10033400F409F509F40A0319F50AF11FA629F009CD
:10034400F109F00A0319F10A71087504FA00FA1B9D
:10035400BB298D207B18CE29FD1F0034F009F1093B
:10036400F00A0319F10AF809F909F80A0319F90A54
:100374000034F51FCA29F11BC6297108F900700859
:10038400F800F101F001AE29F101F001F00A0034A6
:10039400F109F009FB0AAB29F80A0319F90A7408F0
:1003A4007802031DAE2975087902031DAE29F901EF
:1003B400F801F00A0319F10AF11FAE290000FF3415
:0203C40008002F
:1003C60083120313FB0173080319202A7208FA002B
:1003D600F2178E30F302F31F232AF309F30A0830CB
:1003E6007302031C062AF300F10D7208F100F201F4
:1003F60008307302031C062AF300F10DF10173089D
:10040600031D03100E2A730803190E2A0310F20C9B
:10041600F10CF30B092A7B1B711C182A031C182AE2
:10042600F10A0319F20AF21B2F2AFA1F322AF209DD
:10043600F109F10A0319F20A322AF201F101322A0C
:100446007B14FB1F352AF201FA1F352AFF30F20012
:10045600F100FA0DF20C352A0130FC00372A003083
:10046600FC00372AFF30FC00FC0803193B2A8020D9
:0A0476007108F0007208F1000800A0
:1004800083120313FB017308031D77080319972ACE
:1004900072087606FA007708F3077E30031C542AA8
:1004A000F30203189A2A572AF302031C9D2A7208A2
:1004B000F8007108FC007008FD00F817F61703102B
:1004C000F201F101F0011830A0007D1C712A7408BE
:1004D000F00775080318750FF10776080318760FF3
:1004E000F207F20CF10CF00CF80CFC0CFD0C0310F4
:1004F000A00B652AF21B812AF80DF00DF10DF20D0B
:10050000F3037B1B701C932AF81F932AF00A03192C
:10051000F10A0319F20A031D932AF20CF10CF00CF4
:10052000F30A03199A2AFA1FF21300309F2A0130A6
:1005300018209F2A0230C1209F2A04306320000027
:020540000800B1
:100542006F208A110A128000840AD50A0319D60A7A
:08055200F003031DA12A0800BB
:10055A008316031398169030831298008316871710
:10056A00071383128C1EBC2A1A08F000B62A080048
:10057A00831203137008F8007108F000F101F20108
:10058A00F301FB01FC019630F300FA017008F10057
:0C059A007808F000F801F201CD20080004
:1005A600831203137408003A031DEE2A7508003AF5
:1005B600031DEE2A7608003A031DEE2A7708003A54
:1005C600031DEE2AFF30F000FF30F1007F30F2000D
:1005D600FF30F300080083120313770803197D2BFD
:1005E60073080319802B720876068039FA00F21711
:1005F600F617A0017208F8007108FC007008FD00EB
:100606007408FD027508031C750FFC027608031CAE
:10061600760FF802F801FC01FD01031C192B0310EB
:10062600F20CF10CF00CF80C0130A0007708F30284
:10063600031C232B7E302007F3070318832B282B5C
:100646007E302007F307031C862B1830FA07FD0DB2
:10065600FC0DF80DF00DF10DF20DA00D7408F00271
:100666007508031C750FF1027608031C760FF2025B
:10067600760DA004201C412B7D144C2B7408F0072A
:1006860075080318750FF10776080318760AF2073E
:100696007D10FA031F307A05031D2A2B7B1B7D1C58
:1006A600732B0310F00DF10DF20DA00D7408F0027E
:1006B6007508031C750FF1027608031C760FF2020B
:1006C600760D20040139FD070318FC0A0319F80A00
:1006D600031D732BF80CFC0CFD0CF30A0319832B7A
:1006E600FA1FF8137808F2007C08F1007D08F00084
:1006F6000030882B0130FC20882B02301820882BF4
:0E0706000430C120882B08306320000008005A
:10071400831603138612061206108610061186111C
:1007240083128612061286110611861006100D20F9
:100734000D200D208614061486160B2086120D201B
:1007440086160B2086120D2086160B2086120D208D
:10075400061086160B2086120D2086160B20861294
:100764008610861586160B2086120D208611061417
:1007740086160B208612061086160B2086120D2074
:1007840086160B208612061486160B2086120D2060
:10079400061086160B208612861506158614061476
:0C07A40086160B2086120D20571408004A
:1007B000831203139F01C0309F0483161F179F17D6
:1007C00083126908F000F00D7010F00D7010F00D3C
:1007D000701070089F041F14FF201F151F1DF22B9F
:1007E0000000EE2B1F101E08F100F00183161E08FA
:0807F000F0040030F1040800E0
:1007F800082783120313D71457155716D71519301E
:10080800831699001815AD226D30ED0076208A23E5
:10081800E601E701E401E50180306506F00080307B
:100828007002031D192C1430640203184F2C64083D
:10083800F0006508F100F00DF10D70107008A03E91
:10084800E8000130E900D823BD22CD30F400CC30D7
:10085800F5004C30F6007A30F7004022E3216808B2
:100868008400700880007108840A80006408F00021
:100878006508F100F00DF10D70107008A03E8400BD
:100888000008E607840A00080318013EE707E40A9F
:100898000319E50A102C1430F4000030F50066083E
:1008A800F0006708F1007A217008E6007108E70097
:1008B8007008D8007108D900E601E701E401E501F4
:1008C80080306506F00080307002031D6D2C1430F6
:1008D80064020318A22C6408F0006508F100F00D0A
:1008E800F10D70107008A03EE800E901D823BD2280
:1008F800CD30F400CC30F5004C30F6007A30F700FB
:100908004022E32168088400700880007108840A86
:1009180080006408F0006508F100F00DF10D70101A
:100928007008A03E84000008E607840A000803183F
:10093800013EE707E40A0319E50A642C1430F400C1
:100948000030F5006608F0006708F1007A217008A9
:10095800E6007108E7007008DA007108DB00E601BC
:10096800E701E401E50180306506F000803070029F
:10097800031DC02C143064020318F62C6408F00020
:100988006508F100F00DF10D70107008A03EE80048
:100998000430E900D823BD22CD30F400CC30F50076
:1009A8004C30F6007A30F7004022E32168088400D2
:1009B800700880007108840A80006408F0006508E7
:1009C800F100F00DF10D70107008A03E84000008D1
:1009D800E607840A00080318013EE707E40A03193A
:1009E800E50AB72C1430F4000030F5006608F00072
:1009F8006708F1007A217008E6007108E7007008BE
:100A0800DE007108DF00E601E701E401E50180305E
:100A18006506F00080307002031D142D1430640246
:100A280003184A2D6408F0006508F100F00DF10D77
:100A380070107008A03EE8000330E900D823BD22FA
:100A4800CD30F400CC30F5004C30F6007A30F700A9
:100A58004022E32168088400700880007108840A35
:100A680080006408F0006508F100F00DF10D7010C9
:100A78007008A03E84000008E607840A00080318EE
:100A8800013EE707E40A0319E50A0B2D1430F400C8
:100A98000030F5006608F0006708F1007A21700858
:100AA800E6007108E7007008DC007108DD00062127
:100AB800CD30F400CC30F5004C30F6007A30F70039
:100AC800D322E3217008E0007108E1005E08F0001D
:100AD8005F08F1000621CD30F400CC30F5004C3031
:100AE800F6007A30F700D322E3217008E20071089B
:100AF800E30080305D06F00080307002031D862D13
:100B080012305C02031CAE2D0130E9000130EA000E
:100B18002F30EB003A212130E900242168306002AF
:100B2800F0000130031C013E6102F1007008E00092
:100B38007108E1007008ED0076203B30ED0076206A
:100B48008230FC00DD30FD00FD0BA82DFC0BA82D2C
:100B5800000000008030F00080305D067002031D48
:100B6800B72D5C080F3C031CDF2D0130E900013074
:100B7800EA002C30EB003A212830E90024216008F3
:100B8800333CF0006108031C013E013CF100700891
:100B9800E0007108E1007008ED0076203B30ED00C0
:100BA80076208230FC00DD30FD00FD0BD92DFC0BDA
:100BB800D92D0000000080305F06F0008030700200
:100BC800031DE82D12305E02031C102E0130E900CF
:100BD8000130EA002530EB003A214830E9002421B1
:100BE80068306202F0000130031C013E6302F1002C
:100BF8007008E2007108E3007008ED0076203B30D1
:100C0800ED0076208230FC00DD30FD00FD0B0A2E61
:100C1800FC0B0A2E000000008030F00080305F06D8
:100C28007002031D192E5E080F3C031C412E013073
:100C3800E9000130EA004530EB003A214130E90093
:100C480024216208333CF0006308031C013E013C88
:100C5800F1007008E2007108E3007008ED007620EA
:100C68003B30ED0076208230FC00DD30FD00FD0BCE
:100C78003B2EFC0B3B2E000000008030F000803043
:100C88005B067002031D4A2E5A08083C031C642E9A
:100C9800D71D642E0230E9000130EA005230EB0023
:100CA8003A214F30E9002421D71157168230FC0031
:100CB800DD30FD00FD0B5E2EFC0B5E2E00000000FB
:100CC80080305B06F00080307002031D6D2E0A3004
:100CD8005A02031C872E571E872E0230E900013066
:100CE800EA004C30EB003A213830E9002421571251
:100CF800D7158230FC00DD30FD00FD0B812EFC0B8A
:100D0800812E000000008030F0008030590670020B
:100D1800031D902E58080C3C031CAA2ED71CAA2E83
:100D28000230E9000430EA003530EB003A21323075
:100D3800E9002421D71057158230FC00DD30FD0072
:100D4800FD0BA42EFC0BA42E0000000080305906D9
:100D5800F00080307002031DB32E0E305802031CC1
:100D6800CD2E571DCD2E0230E9000430EA003E306A
:100D7800EB003A213B30E90024215711D714823087
:100D8800FC00DD30FD00FD0BC72EFC0BC72E00005C
:060D980000000C2CCE2E21
:100E100021308400343083120313F000D430D50025
:080E20000630D600A1220800F3
:080DA80078342B343D34003493
:060DB00059342B3400341D
:080DB60078342D343D34003483
:060DBE0058342D3400340E
:060DC40058342B3400340A
:060DCA00723431340034E4
:060DD000723431340034DE
:060DD6006C3432340034DD
:060DDC00723432340034D1
:060DE200723432340034CB
:080DE80079342D343D34003450
:060DF00059342D340034DB
:080DF60079342B343D34003444
:060DFE004C3432340034D5
:060E04006C3431340034AF
:060E0A004C3431340034C9
:02400E004A2F37
:00000001FF
