:020000008F2A45
:10000600103083120313FD00FD0B072800000800C3
:0400160000000800DE
:10001A00083083120313FC002330FD00FD0B132864
:06002A00FC0B1328080086
:100030007B15FB1F22280130F300F201F101F001D2
:08004000FA0DF20CFF3008007C
:1000480083120313E11B2A2886112B288615611BAE
:100058002F28061130280615E11A3428861035286D
:100068008614611A392806103A28061453183E28AF
:1000780006163F28061286160B208612E119462816
:1000880086114728861561194B2806114C28061534
:10009800E118502886105128861461185528061032
:1000A8005628061453185A2806165B280612861670
:1000B8000B208612531C62280D2063280320080099
:0800C800FA1FF21300300800DA
:0E00D000F201F101F001F801F3010030080027
:1000DE007B14FB1F7A28F201FA1FFF30F200F100A9
:0A00EE00F000FA0DF20CFF300800DC
:0E00F8008312031352088A0051088200080088
:10010600A0017208031D98287108F2007008F1001A
:10011600F001A0157208031D98287108F200F1017C
:10012600A011201672080319A6282008F302031D41
:10013600031CAA280310F21BAE28F00DF10DF20DD8
:10014600F30B9E28AA280130FC006820B128023053
:0E015600FC001820B1280430FC0064200800D2
:100164008312031353106008E10024205314080081
:0E017400073083120313FD00FD0BBE280800A8
:10018200831603139818C7280000C1288312600839
:0401920099000800C8
:10019600FB14FB1FD528FF30F300F200F100F0003E
:0801A600FA0DF20CFF30080015
:1001AE0083120313FB017308031914297208FA0052
:1001BE00F2178E30F302F31F1729F309F30A0830F2
:1001CE007302031CFA28F300F10D7208F100F2011C
:1001DE0008307302031CFA28F300F10DF1017308C5
:1001EE00031D031002297308031902290310F20CD0
:1001FE00F10CF30BFD287B1B711C0C29031C0C2925
:10020E00F10A0319F20AF21B2329FA1F2629F20911
:10021E00F109F10A0319F20A2629F201F101262940
:10022E007B14FB1F2929F201FA1F2929FF30F20046
:10023E00F100FA0DF20C29290130FC002B290030B7
:10024E00FC002B29FF30FC00FC0803192F296F201E
:0A025E007108F0007208F1000800BA
:1002680083120313FB017308031D770803198B29F5
:1002780072087606FA007708F3077E30031C4829CF
:10028800F30203188E294B29F302031C91297208E3
:10029800F8007108FC007008FD00F817F617031045
:1002A800F201F101F0011830A0007D1C65297408E5
:1002B800F00775080318750FF10776080318760F0D
:1002C800F207F20CF10CF00CF80CFC0CFD0C03100E
:1002D800A00B5929F21B7529F80DF00DF10DF20D3F
:1002E800F3037B1B701C8729F81F8729F00A031961
:1002F800F10A0319F20A031D8729F20CF10CF00C1C
:10030800F30A03198E29FA1FF213003093290130DA
:10031800682093290230CB2093290430182000004C
:020328000800CB
:10032A00831203137008F8007108F000F101F2015A
:10033A00F301FB01FC019630F300FA017008F100A9
:0C034A007808F000F801F20183200800A0
:10035600BD29803083120313DC00D029C030DC00B5
:10036600D0299430DC00D029D430DC00D02980306C
:10037600DC00D029831203135C08013A0319AC2967
:100386005C08023A0319B1295C08033A0319B42937
:100396005C08043A0319B729BA295D03F0005C0822
:1003A600F0077008DC007008E10024205310DF011C
:1003B6005F085E07840000080319E9295F085E07E5
:1003C60084000008E000B220DF0ADB29531408008D
:1003D60083120313DE015C0884000008DD005D085B
:1003E600003A0319002A5D08E000C120DE0A5E0813
:0C03F6005C0784000008DD00F22908000C
:100402008316031386120612061086100611861131
:1004120083128612061286110611861006100D200E
:100422000D200D208614061486160B2086120D2030
:1004320086160B2086120D2086160B2086120D20A2
:10044200061086160B2086120D2086160B208612A9
:100452008610861586160B2086120D20861106142C
:1004620086160B208612061086160B2086120D2089
:1004720086160B208612061486160B2086120D2075
:10048200061086160B20861286150615861406148B
:0C04920086160B2086120D205314080063
:10049E00831203139F01C0309F0483161F179F17EB
:1004AE0083125C08F000F00D7010F00D7010F00D5E
:1004BE00701070089F041F14BA201F151F1D692A83
:1004CE000000652A1F101E08F100F00183161E0899
:0804DE00F0040030F1040800F5
:1004E6008316031398169030831298008316871785
:1004F600071383128C1E822A1A08F0007C2A080031
:100506007C208A110A128000840AD10A0319D20AB1
:08051600F003031D832A080015
:10051E00122483120313D31453155316D315193003
:10052E00831699001815732201220130DC004F2228
:10053E009521CD30F400CC30F5004C30F6007A30F9
:10054E00F7003421D7207008D4007108D500DC01E3
:10055E004F229521CD30F400CC30F5004C30F60012
:10056E007A30F7003421D7207008D6007108D700F2
:10057E000430DC004F229521CD30F400CC30F50054
:10058E004C30F6007A30F7003421D7207008D800AE
:10059E007108D9000330DC004F229521CD30F400D4
:1005AE00CC30F5004C30F6007A30F7003421D720ED
:1005BE007008DA007108DB0080305906F0008030D8
:1005CE007002031DEC2A12305802031C002B01305E
:1005DE00DC000130DD002D30DE00AB212130DC00EF
:1005EE00EB214E30FC00EB30FD00FD0BFC2AFC0B2A
:1005FE00FC2A8030F000803059067002031D092B52
:10060E0058080F3C031C1D2B0130DC000130DD00AF
:10061E002A30DE00AB212730DC00EB214E30FC000F
:10062E00EB30FD00FD0B192BFC0B192B80305B06FC
:10063E00F00080307002031D262B12305A02031C6C
:10064E003A2B0130DC000130DD002430DE00AB211E
:10065E004530DC00EB214E30FC00EB30FD00FD0B95
:10066E00362BFC0B362B8030F00080305B06700290
:10067E00031D432B5A080F3C031C572B0130DC0083
:10068E000130DD004230DE00AB213F30DC00EB21DB
:10069E004E30FC00EB30FD00FD0B532BFC0B532BAF
:1006AE008030F000803057067002031D602B560814
:1006BE00073C031C782BD31D782B0230DC00013055
:1006CE00DD004E30DE00AB214B30DC00EB21D311D0
:1006DE0053164E30FC00EB30FD00FD0B742BFC0B63
:1006EE00742B80305706F00080307002031D812B72
:1006FE0009305602031C992B531E992B0230DC0035
:10070E000130DD004830DE00AB213630DC00EB215D
:10071E005312D3154E30FC00EB30FD00FD0B952B24
:10072E00FC0B952B8030F000803055067002031DB7
:10073E00A22B54080C3C031CBA2BD31CBA2B023030
:10074E00DC000130DD003330DE00AB213030DC0068
:10075E00EB21D31053154E30FC00EB30FD00FD0B9A
:10076E00B62BFC0BB62B80305506F0008030700295
:10077E00031DC32B0E305402031CDB2B531DDB2B2E
:10078E000230DC000130DD003C30DE00AB213930C0
:10079E00DC00EB215311D3144E30FC00EB30FD0086
:0C07AE00FD0BD72BFC0BD72B9C2ADC2B5F
:1008240021308400303083120313F000E230D10011
:080834000330D200832208000A
:0607C40078342B340034F0
:0607CA0059342B34003409
:0607D00078342D340034E2
:0607D60058342D340034FC
:0607DC0058342B340034F8
:0607E200723431340034D2
:0607E800723431340034CC
:0607EE006C3432340034CB
:0607F400723432340034BF
:0607FA00723432340034B9
:0608000079342D340034B0
:0608060059342D340034CA
:06080C0079342B340034A6
:060812004C3432340034C6
:060818006C3431340034A1
:06081E004C3431340034BB
:02400E004A2F37
:00000001FF
