:02000000FC2BD7
:10000600103083120313FD00FD0B072800000800C3
:0400160000000800DE
:10001A00083083120313FC002330FD00FD0B132864
:06002A00FC0B1328080086
:0E003000F201F101F001F801F30100300800C7
:10003E0083120313EC1B25288611262886156C1BAC
:10004E002A2806112B280615EC1A2F288610302880
:10005E0086146C1A342806103528061455183928BB
:10006E0006163A28061286160B208612EC1941281F
:10007E008611422886156C19462806114728061542
:10008E00EC184B2886104C2886146C185028061035
:10009E005128061455185528061656280612861687
:1000AE000B208612551C5D280D205E2803200800AB
:0800BE00FA1FF21300300800E4
:1000C6007B15FB1F6D280130F300F201F101F001F1
:0800D600FA0DF20CFF300800E6
:0E00DE008312031354088A005308820008009E
:1000EC008316031398187C280000762883126B085B
:0400FC00990008005F
:100100007B14FB1F8B28F201FA1FFF30F200F10075
:0A011000F000FA0DF20CFF300800B9
:10011A00710DF80DF90D7408F8027508031C750FB6
:10012A00F902F00DF10D0F30FC00710DF80DF90D0B
:10013A007408701CA628F8027508031C750FF902CA
:10014A00AB28F80775080318750FF907F00DF10DBC
:10015A00FC0B9A287018B7287408F8077508031852
:08016A00750FF9070000080001
:100172008312031355106B08EC001F20551408005E
:10018200FB14FB1FCB28FF30F300F200F100F0005C
:08019200FA0DF20CFF30080029
:10019A00A0017208031DE2287108F2007008F1003C
:1001AA00F001A0157208031DE2287108F200F1019E
:1001BA00A011201672080319F0282008F302031D63
:1001CA00031CF4280310F21BF828F00DF10DF20DB0
:1001DA00F30BE828F4280130FC001820FB28023031
:0E01EA00FC006320FB280430FC005F200800AE
:0601F800FB15FF300800BA
:0E01FE00073083120313FD00FD0B03290800D8
:10020C00831203137008F8007108F000F101F20179
:10021C00F301FB01FC019630F300FA01F01F1C29DD
:10022C00F809F009F80A0319F00AFA177008F10036
:0C023C007808F000F801F201CD20080065
:1002480083120313E901670884000008E8006808BE
:10025800003A031939296808EB007620E90A690889
:0C026800670784000008E8002B2908004C
:100274004C29803083120313E7005F29C030E70064
:100284005F299430E7005F29D430E7005F2980308C
:10029400E7005F29831203136708013A03193B2916
:1002A4006708023A031940296708033A03194329E6
:1002B4006708043A0319462949296803F0006708C6
:1002C400F0077008E7007008EC001F205510EA01E1
:1002D4006A08690784000008031978296A0869070D
:1002E40084000008EB00B920EA0A6A2955140800C2
:1002F400831203137408003A031D89297508003A10
:10030400031D8929FF30F0007F30F100E2298312B8
:100314000313FD01F901F801710870040319003495
:1003240071087506FA00FA1BFD09FB01F51F9F29E8
:10033400F409F509F40A0319F50AF11FA629F009CD
:10034400F109F00A0319F10A71087504FA00FA1B9D
:10035400BB298D207B18CE29FD1F0034F009F1093B
:10036400F00A0319F10AF809F909F80A0319F90A54
:100374000034F51FCA29F11BC6297108F900700859
:10038400F800F101F001AE29F101F001F00A0034A6
:10039400F109F009FB0AAB29F80A0319F90A7408F0
:1003A4007802031DAE2975087902031DAE29F901EF
:1003B400F801F00A0319F10AF11FAE290000FF3415
:0203C40008002F
:1003C60083120313FB0173080319202A7208FA002B
:1003D600F2178E30F302F31F232AF309F30A0830CB
:1003E6007302031C062AF300F10D7208F100F201F4
:1003F60008307302031C062AF300F10DF10173089D
:10040600031D03100E2A730803190E2A0310F20C9B
:10041600F10CF30B092A7B1B711C182A031C182AE2
:10042600F10A0319F20AF21B2F2AFA1F322AF209DD
:10043600F109F10A0319F20A322AF201F101322A0C
:100446007B14FB1F352AF201FA1F352AFF30F20012
:10045600F100FA0DF20C352A0130FC00372A003083
:10046600FC00372AFF30FC00FC0803193B2A8020D9
:0A0476007108F0007208F1000800A0
:1004800083120313FB017308031D77080319972ACE
:1004900072087606FA007708F3077E30031C542AA8
:1004A000F30203189A2A572AF302031C9D2A7208A2
:1004B000F8007108FC007008FD00F817F61703102B
:1004C000F201F101F0011830A0007D1C712A7408BE
:1004D000F00775080318750FF10776080318760FF3
:1004E000F207F20CF10CF00CF80CFC0CFD0C0310F4
:1004F000A00B652AF21B812AF80DF00DF10DF20D0B
:10050000F3037B1B701C932AF81F932AF00A03192C
:10051000F10A0319F20A031D932AF20CF10CF00CF4
:10052000F30A03199A2AFA1FF21300309F2A0130A6
:1005300018209F2A0230C1209F2A04306320000027
:020540000800B1
:100542006F208A110A128000840AD30A0319D40A7E
:08055200F003031DA12A0800BB
:10055A008316031398169030831298008316871710
:10056A00071383128C1EBC2A1A08F000B62A080048
:10057A00831203137008F8007108F000F101F20108
:10058A00F301FB01FC019630F300FA017008F10057
:0C059A007808F000F801F201CD20080004
:1005A600831203137408003A031DEE2A7508003AF5
:1005B600031DEE2A7608003A031DEE2A7708003A54
:1005C600031DEE2AFF30F000FF30F1007F30F2000D
:1005D600FF30F300892B83120313770803197D2B51
:1005E60073080319802B720876068039FA00F21711
:1005F600F617A0017208F8007108FC007008FD00EB
:100606007408FD027508031C750FFC027608031CAE
:10061600760FF802F801FC01FD01031C192B0310EB
:10062600F20CF10CF00CF80C0130A0007708F30284
:10063600031C232B7E302007F3070318832B282B5C
:100646007E302007F307031C862B1830FA07FD0DB2
:10065600FC0DF80DF00DF10DF20DA00D7408F00271
:100666007508031C750FF1027608031C760FF2025B
:10067600760DA004201C412B7D144C2B7408F0072A
:1006860075080318750FF10776080318760AF2073E
:100696007D10FA031F307A05031D2A2B7B1B7D1C58
:1006A600732B0310F00DF10DF20DA00D7408F0027E
:1006B6007508031C750FF1027608031C760FF2020B
:1006C600760D20040139FD070318FC0A0319F80A00
:1006D600031D732BF80CFC0CFD0CF30A0319832B7A
:1006E600FA1FF8137808F2007C08F1007D08F00084
:1006F6000030882B0130FC20882B02301820882BF4
:0E0706000430C120882B08306320000008005A
:10071400831603138612061206108610061186111C
:1007240083128612061286110611861006100D20F9
:100734000D200D208614061486160B2086120D201B
:1007440086160B2086120D2086160B2086120D208D
:10075400061086160B2086120D2086160B20861294
:100764008610861586160B2086120D208611061417
:1007740086160B208612061086160B2086120D2074
:1007840086160B208612061486160B2086120D2060
:10079400061086160B208612861506158614061476
:0C07A40086160B2086120D20551408004C
:1007B000831203139F01C0309F0483161F179F17D6
:1007C00083126708F000F00D7010F00D7010F00D3E
:1007D000701070089F041F14FF201F151F1DF22B9F
:1007E0000000EE2B1F101E08F100F00183161E08FA
:0807F000F0040030F1040800E0
:1007F8000A2783120313D51455155516D515193024
:10080800831699001815AD226D30EB0076208A23E7
:10081800E401E501E201E30180306306F000803085
:100828007002031D192C1430620203184F2C620841
:10083800F0006308F100F00DF10D70107008A03E93
:10084800E6000130E700D823BD22CD30F400CC30DB
:10085800F5004C30F6007A30F7004022E3216608B4
:100868008400700880007108840A80006208F00023
:100878006308F100F00DF10D70107008A03E8400BF
:100888000008E407840A00080318013EE507E20AA5
:100898000319E30A102C1430F4000030F500640842
:1008A800F0006508F1007A217008E4007108E5009D
:1008B8007008D6007108D700E401E501E201E30100
:1008C80080306306F00080307002031D6D2C1430F8
:1008D80062020318A22C6208F0006308F100F00D10
:1008E800F10D70107008A03EE600E701D823BD2284
:1008F800CD30F400CC30F5004C30F6007A30F700FB
:100908004022E32166088400700880007108840A88
:1009180080006208F0006308F100F00DF10D70101E
:100928007008A03E84000008E407840A0008031841
:10093800013EE507E20A0319E30A642C1430F400C7
:100948000030F5006408F0006508F1007A217008AD
:10095800E4007108E5007008D8007108D900E401C6
:10096800E501E201E30180306306F00080307002A7
:10097800031DC02C143062020318F62C6208F00024
:100988006308F100F00DF10D70107008A03EE6004C
:100998000430E700D823BD22CD30F400CC30F50078
:1009A8004C30F6007A30F7004022E32166088400D4
:1009B800700880007108840A80006208F0006308EB
:1009C800F100F00DF10D70107008A03E84000008D1
:1009D800E407840A00080318013EE507E20A031940
:1009E800E30AB72C1430F4000030F5006408F00076
:1009F8006508F1007A217008E4007108E5007008C4
:100A0800DA007108DB00E401E501E201E30180306E
:100A18006306F00080307002031D142D143062024A
:100A280003184A2D6208F0006308F100F00DF10D7B
:100A380070107008A03EE6000330E700D823BD22FE
:100A4800CD30F400CC30F5004C30F6007A30F700A9
:100A58004022E32166088400700880007108840A37
:100A680080006208F0006308F100F00DF10D7010CD
:100A78007008A03E84000008E407840A00080318F0
:100A8800013EE507E20A0319E30A0B2D1430F400CE
:100A98000030F5006408F0006508F1007A2170085C
:100AA800E4007108E5007008DC007108DD005A08F0
:100AB800F0005B08F1000621CD30F400CC30F500E1
:100AC8004C30F6007A30F700D322E3217008DE00BC
:100AD8007108DF005C08F0005D08F1000621CD30E8
:100AE800F400CC30F5004C30F6007A30F700D32211
:100AF800E3217008E0007108E10080305B06F00037
:100B080080307002031D8A2D12305A02031CB22D48
:100B18000130E7000130E8002F30E9003A212130A8
:100B2800E700242168305E02F0000130031C013E1A
:100B38005F02F1007008DE007108DF007008EB004A
:100B480076203B30EB0076208230FC00DD30FD0063
:100B5800FD0BAC2DFC0BAC2D000000008030F0002C
:100B680080305B067002031DBB2D5A080F3C031C26
:100B7800E32D0130E7000130E8002C30E9003A218C
:100B88002830E70024215E08333CF0005F08031C8E
:100B9800013E013CF1007008DE007108DF007008BA
:100BA800EB0076203B30EB0076208230FC00DD3015
:100BB800FD00FD0BDD2DFC0BDD2D0000000080305D
:100BC8005D06F00080307002031DEC2D12305C02CF
:100BD800031C142E0130E7000130E8002530E9003D
:100BE8003A214730E700242168306002F0000130E4
:100BF800031C013E6102F1007008E0007108E10089
:100C08007008EB0076203B30EB0076208230FC0049
:100C1800DD30FD00FD0B0E2EFC0B0E2E000000003B
:100C28008030F00080305D067002031D1D2E5C08C8
:100C38000F3C031C452E0130E7000130E80044302A
:100C4800E9003A214130E70024216008333CF000F4
:100C58006108031C013E013CF1007008E0007108C6
:100C6800E1007008EB0076203B30EB007620823004
:100C7800FC00DD30FD00FD0B3F2EFC0B3F2E00007D
:100C880000008030F000803059067002031D4E2E9F
:100C98005808083C031C682ED51D682E0230E70052
:100CA8000130E8005030E9003A214D30E7002421B6
:100CB800D51155168230FC00DD30FD00FD0B622E8B
:100CC800FC0B622E0000000080305906F0008030D6
:100CD8007002031D712E0A305802031C8B2E551EFC
:100CE8008B2E0230E7000130E8004A30E9003A2153
:100CF8003830E70024215512D5158230FC00DD304C
:100D0800FD00FD0B852EFC0B852E000000008030B9
:100D1800F000803057067002031D942E56080C3CD4
:100D2800031CAE2ED51CAE2E0230E7000430E800BE
:100D38003530E9003A213230E7002421D510551525
:100D48008230FC00DD30FD00FD0BA82EFC0BA82E28
:100D58000000000080305706F00080307002031D4C
:100D6800B72E0E305602031CD12E551DD12E02303F
:100D7800E7000430E8003E30E9003A213B30E70064
:100D880024215511D5148230FC00DD30FD00FD0B07
:0E0D9800CB2EFC0BCB2E000000000C2CD22E1C
:100E140021308400323083120313F000D830D30021
:080E24000630D400A1220800F1
:080DB00078342B343D3400348B
:060DB80059342B34003415
:080DBE0078342D343D3400347B
:060DC60058342D34003406
:060DCC0058342B34003402
:060DD200723431340034DC
:060DD800723431340034D6
:060DDE006C3432340034D5
:060DE400723432340034C9
:060DEA00723432340034C3
:060DF00079342D340034BB
:060DF60059342D340034D5
:060DFC0079342B340034B1
:060E02004C3432340034D0
:060E08006C3431340034AB
:060E0E004C3431340034C5
:02400E004A2F37
:00000001FF
