:02000000422B91
:10000600103083120313FD00FD0B072800000800C3
:0400160000000800DE
:10001A00083083120313FC002330FD00FD0B132864
:06002A00FC0B1328080086
:100030007B15FB1F22280130F300F201F101F001D2
:08004000FA0DF20CFF3008007C
:1000480083120313EA1B2A2886112B2886156A1B9C
:100058002F28061130280615EA1A34288610352864
:1000680086146A1A392806103A28061453183E28A6
:1000780006163F28061286160B208612EA1946280D
:100088008611472886156A194B2806114C2806152B
:10009800EA1850288610512886146A185528061020
:1000A8005628061453185A2806165B280612861670
:1000B8000B208612531C62280D2063280320080099
:0E00C800F201F101F001F801F301003008002F
:0800D600FA1FF21300300800CC
:1000DE00831603139818752800006F288312690879
:0400EE00990008006D
:1000F2007B14FB1F8428F201FA1FFF30F200F1008B
:0A010200F000FA0DF20CFF300800C7
:10010C00A0017208031D9B287108F2007008F10011
:10011C00F001A0157208031D9B287108F200F10173
:10012C00A011201672080319A9282008F302031D38
:10013C00031CAD280310F21BB128F00DF10DF20DCC
:10014C00F30BA128AD280130FC006420B428023048
:0E015C00FC001820B4280430FC006B200800C2
:0E016A00073083120313FD00FD0BB9280800B7
:10017800FB14FB1FC628FF30F300F200F100F0006B
:08018800FA0DF20CFF30080033
:10019000710DF80DF90D7408F8027508031C750F40
:1001A000F902F00DF10D0F30FC00710DF80DF90D95
:1001B0007408701CE128F8027508031C750FF90219
:1001C000E628F80775080318750FF907F00DF10D0B
:1001D000FC0BD5287018F2287408F8077508031866
:0801E000750FF907000008008B
:1001E8008312031353106908EA00242053140800EB
:0E01F8008312031352088A0051088200080087
:1002060083120313FB017308031940297208FA00CD
:10021600F2178E30F302F31F4329F309F30A08306D
:100226007302031C2629F300F10D7208F100F20196
:1002360008307302031C2629F300F10DF10173083F
:10024600031D03102E29730803192E290310F20C1F
:10025600F10CF30B29297B1B711C3829031C382947
:10026600F10A0319F20AF21B4F29FA1F5229F20961
:10027600F109F10A0319F20A5229F201F101522990
:100286007B14FB1F5529F201FA1F5529FF30F20096
:10029600F100FA0DF20C55290130FC005729003007
:1002A600FC005729FF30FC00FC0803195B29792064
:0A02B6007108F0007208F100080062
:1002C000831203137408003A031D6F297508003A5E
:1002D000031D6F29FF30F0007F30F100080083120A
:1002E0000313FD01F901F8017108700403190034CA
:1002F00071087506FA00FA1BFD09FB01F51F852937
:10030000F409F509F40A0319F50AF11F8C29F0091B
:10031000F109F00A0319F10A71087504FA00FA1BD1
:10032000A129C8207B18B429FD1F0034F009F10968
:10033000F00A0319F10AF809F909F80A0319F90A88
:100340000034F51FB029F11BAC297108F9007008C1
:10035000F800F101F0019429F101F001F00A0034F4
:10036000F109F009FB0A9129F80A0319F90A74083E
:100370007802031D942975087902031D9429F90157
:10038000F801F00A0319F10AF11F94290000FF3463
:02039000080063
:10039200831203137008F8007108F000F101F201F2
:1003A200F301FB01FC019630F300FA017008F10041
:0C03B2007808F000F801F2018620080035
:1003BE00831203137008F8007108F000F101F201C6
:1003CE00F301FB01FC019630F300FA01F01FF52951
:1003DE00F809F009F80A0319F00AFA177008F10083
:0C03EE007808F000F801F20186200800F9
:1003FA000F2A803083120313E500222AC030E50059
:10040A00222A9430E500222AD430E500222A8030BC
:10041A00E500222A831203136508013A0319FE290B
:10042A006508023A0319032A6508033A0319062ADA
:10043A006508043A0319092A0C2A6603F0006508BC
:10044A00F0077008E5007008EA0024205310E8015C
:10045A00680867078400000803193B2A68086707C9
:10046A0084000008E900F420E80A2D2A5314080041
:10047A0083120313FB017308031D77080319942AD7
:10048A0072087606FA007708F3077E30031C512AB1
:10049A00F3020318972A542AF302031C9A2A7208B1
:1004AA00F8007108FC007008FD00F817F617031031
:1004BA00F201F101F0011830A0007D1C6E2A7408C7
:1004CA00F00775080318750FF10776080318760FF9
:1004DA00F207F20CF10CF00CF80CFC0CFD0C0310FA
:1004EA00A00B622AF21B7E2AF80DF00DF10DF20D17
:1004FA00F3037B1B701C902AF81F902AF00A031939
:10050A00F10A0319F20A031D902AF20CF10CF00CFD
:10051A00F30A0319972AFA1FF21300309C2A0130B2
:10052A0064209C2A0230BC209C2A04301820000037
:02053A000800B7
:10053C0083120313E701650884000008E6006608CF
:10054C00003A0319B32A6608E9006F20E70A670826
:0C055C00650784000008E600A52A0800DE
:10056800831203139F01C0309F0483161F179F1720
:1005780083126508F000F00D7010F00D7010F00D8A
:10058800701070089F041F14B5201F151F1DCE2A58
:100598000000CA2A1F101E08F100F00183161E0869
:0805A800F0040030F10408002A
:1005B000FC208A110A128000840AD10A0319D20A87
:0805C000F003031DD82A080016
:1005C800831603138612061206108610061186116A
:1005D80083128612061286110611861006100D2047
:1005E8000D200D208614061486160B2086120D2069
:1005F80086160B2086120D2086160B2086120D20DB
:10060800061086160B2086120D2086160B208612E1
:100618008610861586160B2086120D208611061464
:1006280086160B208612061086160B2086120D20C1
:1006380086160B208612061486160B2086120D20AD
:10064800061086160B2086128615061586140614C3
:0C06580086160B2086120D20531408009B
:100664008316031398169030831298008316871705
:10067400071383128C1E412B1A08F0003B2B080031
:100684002E2683120313D31453155316D31519307E
:1006940083169900181532236D30E9006F20E42287
:1006A400E201E301E001E10180306106F000803005
:1006B4007002031D5F2B143060020318952B600831
:1006C400F0006108F100F00DF10D70107008A03E0B
:1006D400E4000130E500B422C921CD30F400CC306F
:1006E400F5004C30F6007A30F7003D22032164080F
:1006F4008400700880007108840A80006008F0009B
:100704006108F100F00DF10D70107008A03E840036
:100714000008E207840A00080318013EE307E00A20
:100724000319E10A562B1430F4000030F500620876
:10073400F0006308F10060217008E2007108E30032
:100744007008D4007108D500E201E301E001E10181
:1007540080306106F00080307002031DB32B14302A
:1007640060020318E82B6008F0006108F100F00D46
:10077400F10D70107008A03EE400E501B422C92117
:10078400CD30F400CC30F5004C30F6007A30F70070
:100794003D22032164088400700880007108840AE3
:1007A40080006008F0006108F100F00DF10D701098
:1007B4007008A03E84000008E207840A00080318B9
:1007C400013EE307E00A0319E10AAA2B1430F400FE
:1007D4000030F5006208F0006308F1006021700841
:1007E400E2007108E3007008D6007108D700E20146
:1007F400E301E001E10180306106F0008030700225
:10080400031D062C143060020318322C6008F0001B
:100814006108F100F00DF10D70107008A03EE400C5
:100824000430E500B4228312640884007008800058
:100834007108840A80006008F0006108F100F00D7E
:10084400F10D70107008A03E84000008E207840ACD
:1008540000080318013EE307E00A0319E10AFD2B2F
:100864001430F4000030F5006208F0006308F10071
:1008740060217008E2007108E3007008DE0071086E
:10088400DF00DF21CD30F400CC30F5004C30F60031
:100894007A30F7003D2203217008DA007108DB008A
:1008A400E201E301E001E10180306106F000803003
:1008B4007002031D5F2C1430600203188B2C600837
:1008C400F0006108F100F00DF10D70107008A03E09
:1008D400E4000330E500B422831264088400700845
:1008E40080007108840A80006008F0006108F1004B
:1008F400F00DF10D70107008A03E84000008E207AE
:10090400840A00080318013EE307E00A0319E10A18
:10091400562C1430F4000030F5006208F00063082F
:10092400F10060217008E2007108E3007008DC0047
:100934007108DD00DF21CD30F400CC30F5004C30FF
:10094400F6007A30F7003D2203217008D8007108C0
:10095400D90080307106F20080307202031DB42C7D
:1009640012307002031CDC2C0130E5000130E6007B
:100974002D30E700FD212130E5009E2268305C0225
:10098400F0000130031C013E5D02F1007008DC0040
:100994007108DD007008E9006F203B30E9006F202A
:1009A4008230FC00DD30FD00FD0BD62CFC0BD62C78
:1009B400000000008030F000803059067002031DF2
:1009C400E52C58080F3C031C0D2D0130E5000130C7
:1009D400E6002A30E700FD212730E5009E225C086E
:1009E400333CF0005D08031C013E013CF10070083B
:1009F400DC007108DD007008E9006F203B30E9007D
:100A04006F208230FC00DD30FD00FD0B072DFC0B58
:100A1400072D0000000080305B06F000803070027B
:100A2400031D162D12305A02031C3E2D0130E50021
:100A34000130E6002430E700FD214530E5009E2228
:100A440068305E02F0000130031C013E5F02F100D9
:100A54007008DE007108DF007008E9006F203B3089
:100A6400E9006F208230FC00DD30FD00FD0B382DE5
:100A7400FC0B382D000000008030F00080305B0655
:100A84007002031D472D5A080F3C031C6F2D0130C3
:100A9400E5000130E6004230E700FD213F30E5008B
:100AA4009E225E08333CF0005F08031C013E013CBB
:100AB400F1007008DE007108DF007008E9006F20A3
:100AC4003B30E9006F208230FC00DD30FD00FD0B7F
:100AD400692DFC0B692D000000008030F00080308F
:100AE40057067002031D782D5608083C031C912DEF
:100AF400D31D912D0230E5000130E6004E30E700B1
:100B0400FD214B30E5009E22D31153164130FC00E9
:100B1400EE30FD00FD0B8C2DFC0B8C2D0000803085
:100B24005706F00080307002031D9A2D0A305602D9
:100B3400031CB32D531EB32D0230E5000130E60033
:100B44004830E700FD213630E5009E225312D315CC
:100B54004130FC00EE30FD00FD0BAE2DFC0BAE2D44
:100B640000008030F000803055067002031DBC2D5B
:100B740054080C3C031CD52DD31CD52D0230E500A4
:100B84000430E6003330E700FD213030E5009E22DA
:100B9400D31053154130FC00EE30FD00FD0BD02D79
:100BA400FC0BD02D000080305506F0008030700220
:100BB400031DDE2D0E305402031CF72D531DF72D9B
:100BC4000230E5000430E6003C30E700FD21393016
:100BD400E5009E225311D3144130FC00EE30FD0099
:0E0BE400FD0BF22DFC0BF22D0000522BF82D14
:100C5C0021308400303083120313F000FE30D100B9
:080C6C000530D200D822080077
:060BFC0078342B340034B4
:060C020059342B340034CC
:060C080078342D340034A5
:060C0E0058342D340034BF
:060C140058342B340034BB
:060C1A0072343134003495
:060C20007234313400348F
:060C26006C34323400348E
:060C2C0072343234003482
:060C32007234323400347C
:060C380079342D34003474
:060C3E0059342D3400348E
:060C440079342B3400346A
:060C4A004C34323400348A
:060C50006C343134003465
:060C56004C34313400347F
:02400E004A2F37
:00000001FF
